{
  "address": "0xBeaC73A7755BeED1337Ca95137EB8b9247f88542",
  "abi": [
    {
      "inputs": [
        {
          "internalType": "uint256",
          "name": "_initialSupply",
          "type": "uint256"
        }
      ],
      "stateMutability": "nonpayable",
      "type": "constructor"
    },
    {
      "anonymous": false,
      "inputs": [
        {
          "indexed": true,
          "internalType": "address",
          "name": "owner",
          "type": "address"
        },
        {
          "indexed": true,
          "internalType": "address",
          "name": "spender",
          "type": "address"
        },
        {
          "indexed": false,
          "internalType": "uint256",
          "name": "value",
          "type": "uint256"
        }
      ],
      "name": "Approval",
      "type": "event"
    },
    {
      "anonymous": false,
      "inputs": [
        {
          "indexed": true,
          "internalType": "address",
          "name": "from",
          "type": "address"
        },
        {
          "indexed": true,
          "internalType": "address",
          "name": "to",
          "type": "address"
        },
        {
          "indexed": false,
          "internalType": "uint256",
          "name": "value",
          "type": "uint256"
        }
      ],
      "name": "Transfer",
      "type": "event"
    },
    {
      "inputs": [
        {
          "internalType": "address",
          "name": "tokenOwner",
          "type": "address"
        },
        {
          "internalType": "address",
          "name": "spender",
          "type": "address"
        }
      ],
      "name": "allowance",
      "outputs": [
        {
          "internalType": "uint256",
          "name": "",
          "type": "uint256"
        }
      ],
      "stateMutability": "view",
      "type": "function"
    },
    {
      "inputs": [
        {
          "internalType": "address",
          "name": "spender",
          "type": "address"
        },
        {
          "internalType": "uint256",
          "name": "value",
          "type": "uint256"
        }
      ],
      "name": "approve",
      "outputs": [
        {
          "internalType": "bool",
          "name": "",
          "type": "bool"
        }
      ],
      "stateMutability": "nonpayable",
      "type": "function"
    },
    {
      "inputs": [
        {
          "internalType": "address",
          "name": "account",
          "type": "address"
        }
      ],
      "name": "balanceOf",
      "outputs": [
        {
          "internalType": "uint256",
          "name": "",
          "type": "uint256"
        }
      ],
      "stateMutability": "view",
      "type": "function"
    },
    {
      "inputs": [
        {
          "internalType": "uint256",
          "name": "amount",
          "type": "uint256"
        }
      ],
      "name": "burn",
      "outputs": [
        {
          "internalType": "bool",
          "name": "",
          "type": "bool"
        }
      ],
      "stateMutability": "nonpayable",
      "type": "function"
    },
    {
      "inputs": [],
      "name": "decimals",
      "outputs": [
        {
          "internalType": "uint8",
          "name": "",
          "type": "uint8"
        }
      ],
      "stateMutability": "view",
      "type": "function"
    },
    {
      "inputs": [],
      "name": "name",
      "outputs": [
        {
          "internalType": "string",
          "name": "",
          "type": "string"
        }
      ],
      "stateMutability": "view",
      "type": "function"
    },
    {
      "inputs": [],
      "name": "owner",
      "outputs": [
        {
          "internalType": "address",
          "name": "",
          "type": "address"
        }
      ],
      "stateMutability": "view",
      "type": "function"
    },
    {
      "inputs": [],
      "name": "symbol",
      "outputs": [
        {
          "internalType": "string",
          "name": "",
          "type": "string"
        }
      ],
      "stateMutability": "view",
      "type": "function"
    },
    {
      "inputs": [],
      "name": "totalSupply",
      "outputs": [
        {
          "internalType": "uint256",
          "name": "",
          "type": "uint256"
        }
      ],
      "stateMutability": "view",
      "type": "function"
    },
    {
      "inputs": [
        {
          "internalType": "address",
          "name": "to",
          "type": "address"
        },
        {
          "internalType": "uint256",
          "name": "value",
          "type": "uint256"
        }
      ],
      "name": "transfer",
      "outputs": [
        {
          "internalType": "bool",
          "name": "",
          "type": "bool"
        }
      ],
      "stateMutability": "nonpayable",
      "type": "function"
    },
    {
      "inputs": [
        {
          "internalType": "address",
          "name": "from",
          "type": "address"
        },
        {
          "internalType": "address",
          "name": "to",
          "type": "address"
        },
        {
          "internalType": "uint256",
          "name": "value",
          "type": "uint256"
        }
      ],
      "name": "transferFrom",
      "outputs": [
        {
          "internalType": "bool",
          "name": "",
          "type": "bool"
        }
      ],
      "stateMutability": "nonpayable",
      "type": "function"
    }
  ],
  "transactionHash": "0x9625cd81e7855a8cb2759e7ba8fe76e3bfd75252fc6d201809c7f32070d5a460",
  "args": [
    100
  ],
  "numDeployments": 1,
  "solcInputHash": "ca065286895a44bc3f6b7ef67ba2af4d",
  "bytecode": "0x60c060405260066080908152652a37b5b2b72160d11b60a052600090620000279082620001cd565b506040805180820190915260038152622a25a160e91b6020820152600190620000519082620001cd565b506002805460ff191660121790553480156200006c57600080fd5b5060405162000f9838038062000f988339810160408190526200008f9162000299565b600680546001600160a01b03191633179055600254620000b49060ff16600a620003c8565b620000c09082620003dd565b6003819055600680546001600160a01b03908116600090815260046020908152604080832086905593549351948552929091169290917fddf252ad1be2c89b69c2b068fc378daa952ba7f163c4a11628f55a4df523b3ef910160405180910390a350620003f7565b634e487b7160e01b600052604160045260246000fd5b600181811c908216806200015357607f821691505b6020821081036200017457634e487b7160e01b600052602260045260246000fd5b50919050565b601f821115620001c857600081815260208120601f850160051c81016020861015620001a35750805b601f850160051c820191505b81811015620001c457828155600101620001af565b5050505b505050565b81516001600160401b03811115620001e957620001e962000128565b6200020181620001fa84546200013e565b846200017a565b602080601f831160018114620002395760008415620002205750858301515b600019600386901b1c1916600185901b178555620001c4565b600085815260208120601f198616915b828110156200026a5788860151825594840194600190910190840162000249565b5085821015620002895787850151600019600388901b60f8161c191681555b5050505050600190811b01905550565b600060208284031215620002ac57600080fd5b5051919050565b634e487b7160e01b600052601160045260246000fd5b600181815b808511156200030a578160001904821115620002ee57620002ee620002b3565b80851615620002fc57918102915b93841c9390800290620002ce565b509250929050565b6000826200032357506001620003c2565b816200033257506000620003c2565b81600181146200034b5760028114620003565762000376565b6001915050620003c2565b60ff8411156200036a576200036a620002b3565b50506001821b620003c2565b5060208310610133831016604e8410600b84101617156200039b575081810a620003c2565b620003a78383620002c9565b8060001904821115620003be57620003be620002b3565b0290505b92915050565b6000620003d6838362000312565b9392505050565b8082028115828204841417620003c257620003c2620002b3565b610b9180620004076000396000f3fe608060405234801561001057600080fd5b50600436106100a95760003560e01c806342966c681161007157806342966c681461013857806370a082311461014b5780638da5cb5b1461017457806395d89b411461019f578063a9059cbb146101a7578063dd62ed3e146101ba57600080fd5b806306fdde03146100ae578063095ea7b3146100cc57806318160ddd146100ef57806323b872dd14610106578063313ce56714610119575b600080fd5b6100b66101f3565b6040516100c391906109a7565b60405180910390f35b6100df6100da366004610a11565b610281565b60405190151581526020016100c3565b6100f860035481565b6040519081526020016100c3565b6100df610114366004610a3b565b610401565b6002546101269060ff1681565b60405160ff90911681526020016100c3565b6100df610146366004610a77565b6106b2565b6100f8610159366004610a90565b6001600160a01b031660009081526004602052604090205490565b600654610187906001600160a01b031681565b6040516001600160a01b0390911681526020016100c3565b6100b66107f0565b6100df6101b5366004610a11565b6107fd565b6100f86101c8366004610ab2565b6001600160a01b03918216600090815260056020908152604080832093909416825291909152205490565b6000805461020090610ae5565b80601f016020809104026020016040519081016040528092919081815260200182805461022c90610ae5565b80156102795780601f1061024e57610100808354040283529160200191610279565b820191906000526020600020905b81548152906001019060200180831161025c57829003601f168201915b505050505081565b60006001600160a01b0383166102ec5760405162461bcd60e51b815260206004820152602560248201527f4e6f207365207075656465206170726f766172206c6120646972656363696f6e604482015264206365726f60d81b60648201526084015b60405180910390fd5b3360009081526005602090815260408083206001600160a01b0387168452909152902054158061031a575081155b61039b5760405162461bcd60e51b815260206004820152604660248201527f4c6120617369676d6163696f6e20646562652065737461626c6563657263652060448201527f6365726f20616e7465732064652063616d62696172206120756e206e7565766f606482015265103b30b637b960d11b608482015260a4016102e3565b3360008181526005602090815260408083206001600160a01b03881680855290835292819020869055518581529192917f8c5be1e5ebec7d5bd14f71427d1e84f3dd0314c0f7b2291e5b200ac8c7c3b92591015b60405180910390a35060015b92915050565b60006001600160a01b03831661047f5760405162461bcd60e51b815260206004820152603a60248201527f4e6f207365207075656465207472616e666572697220646972656363696f6e2060448201527f64652064657374696e61746172696f20696e636f72726563746100000000000060648201526084016102e3565b600082116104f55760405162461bcd60e51b815260206004820152603760248201527f456c206d6f6e746f206465206c61207472616e666572656e636961206465626560448201527f20736572206d61796f7261206365726f20746f6b656e7300000000000000000060648201526084016102e3565b6001600160a01b0384166000908152600460205260409020548211156105545760405162461bcd60e51b815260206004820152601460248201527342616c616e636520696e737566696369656e746560601b60448201526064016102e3565b6001600160a01b03841660009081526005602090815260408083203384529091529020548211156105c75760405162461bcd60e51b815260206004820152601760248201527f53652065786564696f206c6120617369676e6163696f6e00000000000000000060448201526064016102e3565b6001600160a01b038416600090815260046020526040812080548492906105ef908490610b35565b90915550506001600160a01b0383166000908152600460205260408120805484929061061c908490610b48565b90915550506001600160a01b038416600090815260056020908152604080832033845290915281208054849290610654908490610b35565b92505081905550826001600160a01b0316846001600160a01b03167fddf252ad1be2c89b69c2b068fc378daa952ba7f163c4a11628f55a4df523b3ef846040516106a091815260200190565b60405180910390a35060019392505050565b336000908152600460205260408120548211156107115760405162461bcd60e51b815260206004820181905260248201527f42616c616e636520696e737566696369656e74652070617261207175656d617260448201526064016102e3565b600082116107735760405162461bcd60e51b815260206004820152602960248201527f4c612063616e7469646164207175656d616461206465626520736572206d61796044820152686f722061206365726f60b81b60648201526084016102e3565b3360009081526004602052604081208054849290610792908490610b35565b9250508190555081600360008282546107ab9190610b35565b909155505060405182815260009033907fddf252ad1be2c89b69c2b068fc378daa952ba7f163c4a11628f55a4df523b3ef9060200160405180910390a3506001919050565b6001805461020090610ae5565b60006001600160a01b0383166108685760405162461bcd60e51b815260206004820152602a60248201527f4e6f207365207075656465207472616e7366657269722061206c6120646972656044820152696363696f6e206365726f60b01b60648201526084016102e3565b600082116108c35760405162461bcd60e51b815260206004820152602260248201527f4e6f207365207075656465207472616e736665726972206365726f20746f6b656044820152616e7360f01b60648201526084016102e3565b336000908152600460205260409020548211156109195760405162461bcd60e51b815260206004820152601460248201527342616c616e636520696e737566696369656e746560601b60448201526064016102e3565b3360009081526004602052604081208054849290610938908490610b35565b90915550506001600160a01b03831660009081526004602052604081208054849290610965908490610b48565b90915550506040518281526001600160a01b0384169033907fddf252ad1be2c89b69c2b068fc378daa952ba7f163c4a11628f55a4df523b3ef906020016103ef565b600060208083528351808285015260005b818110156109d4578581018301518582016040015282016109b8565b506000604082860101526040601f19601f8301168501019250505092915050565b80356001600160a01b0381168114610a0c57600080fd5b919050565b60008060408385031215610a2457600080fd5b610a2d836109f5565b946020939093013593505050565b600080600060608486031215610a5057600080fd5b610a59846109f5565b9250610a67602085016109f5565b9150604084013590509250925092565b600060208284031215610a8957600080fd5b5035919050565b600060208284031215610aa257600080fd5b610aab826109f5565b9392505050565b60008060408385031215610ac557600080fd5b610ace836109f5565b9150610adc602084016109f5565b90509250929050565b600181811c90821680610af957607f821691505b602082108103610b1957634e487b7160e01b600052602260045260246000fd5b50919050565b634e487b7160e01b600052601160045260246000fd5b818103818111156103fb576103fb610b1f565b808201808211156103fb576103fb610b1f56fea2646970667358221220ecdb11ca5b37bdbaa80abf10de1a343a6917385c7acf8029005e1374a74fcca164736f6c63430008140033",
  "devdoc": {
    "kind": "dev",
    "methods": {},
    "version": 1
  },
  "userdoc": {
    "kind": "user",
    "methods": {},
    "version": 1
  },
  "storageLayout": {
    "storage": [
      {
        "astId": 367,
        "contract": "contracts/TokenB.sol:TokenB",
        "label": "name",
        "offset": 0,
        "slot": "0",
        "type": "t_string_storage"
      },
      {
        "astId": 370,
        "contract": "contracts/TokenB.sol:TokenB",
        "label": "symbol",
        "offset": 0,
        "slot": "1",
        "type": "t_string_storage"
      },
      {
        "astId": 373,
        "contract": "contracts/TokenB.sol:TokenB",
        "label": "decimals",
        "offset": 0,
        "slot": "2",
        "type": "t_uint8"
      },
      {
        "astId": 375,
        "contract": "contracts/TokenB.sol:TokenB",
        "label": "totalSupply",
        "offset": 0,
        "slot": "3",
        "type": "t_uint256"
      },
      {
        "astId": 379,
        "contract": "contracts/TokenB.sol:TokenB",
        "label": "balances",
        "offset": 0,
        "slot": "4",
        "type": "t_mapping(t_address,t_uint256)"
      },
      {
        "astId": 385,
        "contract": "contracts/TokenB.sol:TokenB",
        "label": "allowances",
        "offset": 0,
        "slot": "5",
        "type": "t_mapping(t_address,t_mapping(t_address,t_uint256))"
      },
      {
        "astId": 387,
        "contract": "contracts/TokenB.sol:TokenB",
        "label": "owner",
        "offset": 0,
        "slot": "6",
        "type": "t_address"
      }
    ],
    "types": {
      "t_address": {
        "encoding": "inplace",
        "label": "address",
        "numberOfBytes": "20"
      },
      "t_mapping(t_address,t_mapping(t_address,t_uint256))": {
        "encoding": "mapping",
        "key": "t_address",
        "label": "mapping(address => mapping(address => uint256))",
        "numberOfBytes": "32",
        "value": "t_mapping(t_address,t_uint256)"
      },
      "t_mapping(t_address,t_uint256)": {
        "encoding": "mapping",
        "key": "t_address",
        "label": "mapping(address => uint256)",
        "numberOfBytes": "32",
        "value": "t_uint256"
      },
      "t_string_storage": {
        "encoding": "bytes",
        "label": "string",
        "numberOfBytes": "32"
      },
      "t_uint256": {
        "encoding": "inplace",
        "label": "uint256",
        "numberOfBytes": "32"
      },
      "t_uint8": {
        "encoding": "inplace",
        "label": "uint8",
        "numberOfBytes": "1"
      }
    }
  }
}